:400000000080002011000000F5090000F509000008B5044B1A6803F53F5302331A6000F0F1FC00BFFA46004010B5054C237833B9044B13B10448AFF300800123237010BD8E
:400040008882FF1F0000000028210000084B10B51BB108490848AFF300800848036803B910BD074B002BFBD0BDE81040184700BF000000008C82FF1F28210000C880FF1FEE
:400080000000000008B5002001F00AF908BD00BF684620F007018D4619B572B6EFF311841E4B1B68DBB20F2B10D9103B23F0030202F1604202F564421168DB0003F0180352
:4000C000E0229A400A4022FA03F306E00F2B03D1134B1B681B0E00E0002383F31188114A136801331360012B01D101F069FE62B6FFF7C8FF72B684F3118801F0CBFA094ACF
:400100001368013B13601BB901F063FE01F027FE62B6BDE819408546704700BF04ED00E020ED00E01083FF1F08B562B6054A064B1A60064A136843F002031360002001F01D
:4001400097FBFBE73F19010014E000E010E000E008B500F009FD00F075FA00F01DFA01F0EBFB094A136843F00503136001221146002000F017FF032000F0A0FE012000F040
:400180009DFE01F0BBFB08BD10E000E000BFFDE7F0B585B05E4B9E685E4B9B681A68002A3DD05C4A128804A820F80C2D1B6898470546E8B9BDF80410ADF80010554B9A682C
:4001C00019800021596002219970576993683BB33FB925E0996857F8240001F007F9013400E000244B4B9B681A699442F2D317E0484B03229A709B68DF69DB6883B13FB9F2
:400200000EE0D96857F8240001F0F0F8013400E00024404B9B689A699442F2D300E00025002D73D13B4B1B88ADF80C30ADF8083043F30723002B05DB5C000021084600F05B
:40024000D1F900E000249DF90930052B01D0002B03DA0121002000F0C5F9022E56D82C4BDA681C6000219960022119715569936873B13DB90CE0996855F8240001F0B6F8BE
:40028000013400E00024224BDB681A699442F2D31F4BDB681A68002A38D01D4A126804A840F80C2D1B689847D0B9194BDA68019919600021996002211971556993682BB3D6
:4002C0003DB923E0996855F8240001F08FF8013400E000240E4BDB681A699442F2D315E00B4B03221A71DB68DD69DB6873B13DB90CE0D96855F8240001F078F8013400E033
:400300000024034BDB689A699442F2D305B0F0BDD880FF1FCC80FF1FF0B583B0514B1E68DB681A68002A38D002A840F8046D1B6898470546D0B94B4BDA68019919600021A2
:40034000996002211971576993683BB33FB925E0996857F8240001F049F8013400E00024404BDB681A699442F2D317E03D4B03221A71DB68DF69DB6883B13FB90EE0D9680E
:4003800057F8240001F032F8013400E00024354BDB689A699442F2D300E00025002D5FD1F4B2204600F0EEFB00222146104600F063F92C4BDA681E600021996002211971A5
:4003C0005569936873B13DB90CE0996855F8240001F00CF8013400E00024224BDB681A699442F2D31F4BDB681A68002A38D01D4A126802A840F8042D1B689847D0B9194B2C
:40040000DA68019919600021996002211971556993682BB33DB923E0996855F8240000F0E5FF013400E000240E4BDB681A699442F2D315E00B4B03221A71DB68DD69DB6810
:4004400073B13DB90CE0D96855F8240000F0CEFF013400E00024034BDB689A699442F2D303B0F0BDD880FF1F30B585B000248DF80C408DF80D400DF10D0103A800F094F8B5
:40048000BDF80C10ADF808102D4B9A6819805C60022199705569936873B13DB90CE0996855F8240000F0A2FF013400E00024244B9B681A699442F2D3214B9B681A68002A0D
:4004C0003BD01F4A128804A820F8102D1B689847E8B9BDF80010ADF80410194B9A6819800021596002219970556993682BB33DB923E0996855F8240000F078FF013400E0E9
:4005000000240F4B9B681A699442F2D315E00C4B03229A709B68DD69DB6873B13DB90CE0D96855F8240000F061FF013400E00024034B9B689A699442F2D305B030BD00BF84
:40054000CC80FF1F00B583B000230193012000F0CDFF01A9032000F029FF019800F0F8FE019A0121014800F0B3F8EFE72C21000010B5074C22680221064800F091F8236856
:400580000133236013F5807F01D90022226010BDA482FF1F3821000008B500F05BFC00F06DFC002008BD00BF70B506460D46002000F068FC002000F071FC84B2012000F098
:4005C0006DFC80B2D4F5006400D50F3444F307143470D0F5006000D50F3040F307102870002070BD38B504460D46032824D8DFE800F00209101E084600F060FA104B1D55B7
:40060000002038BD084600F065FA0D4B1D55002038BD084600F06AFA094B1D55002038BD29462046FFF7DEFF0134E4B200E00024022CF5D9002038BD6FF0130038BD00BFFE
:40064000A882FF1F38B50024254609E00021094B19552046FFF7C6FF00B105460134E4B2022CF3D900F064FB00F01AFB00F0D0FA284638BDA882FF1F70B50E461546074C28
:4006800034F8100000F09EFA34F8160000F0E2FA34F8150000F026FB002070BD4C210000F8B506460F46154600240DE006EBC4039A88B5FBF2F302FB13531BB956F834304A
:4006C000002098470134A4B2BC42EFD3F8BD00BFF8B505460E461746002409E005EBC4035868384202D055F8343098470134A4B2B442F3D3F8BD00BFFEE700BFF0B400220E
:40070000174611E050F82760F3B226F0FF0608E001EB420511F812406D78A5550132013BDBB2002BF4D101372B2FEBD9F0BC704738B500242E4B1C80582202331A70082259
:4007400002331A8018232B4A13702C2102321180023213709B21023211800232137043F63F0102321180023213700622224B1A705222A3F580731A70204B1B78DBB2204AE4
:4007800013704FF4E3621F4B1A8042F25122023B1A8019250CE01C4B1B7803F0010343EA440404F003044FF4F07001F091FB013D0DB1032CEFD115B90320FFF79DFF134A36
:4007C0004FF48073138007231370002310490B7048200231087013700532137002220D4B1A700D4A137843F01F03137038BD00BF8040004086400040004300400F010049E6
:40080000A14600402242004025420040044000400640004001400040A243004008B50A46002101F078FC08BDF8B5164B1B78DBB2154E3478E4B2154F3D78EDB203F00701B8
:40084000134A11701B090132137044F00303337045F003033B7003220E4B1A7040230E4A13700232137030220C4B1A70202203331A700A2001F05CFA3D7034704422084B50
:400880001A70F8BDCF010049F8460040F94600406E5800400D51004001590040205B00407658004008B501F02BFC08BD38B572B661223A4B1A70FFF73BFF00240CE0384DD6
:4008C000630019194A0011462A44084691882858FFF7A4FF0134E4B2062CF0D900240BE02F49A3001819420088181022016BC06AFFF7D8FF0134E4B2002CF1D029494FF0D3
:400900009040FFF7FBFE04212748FFF787FF042226492748FFF7C6FF264A137843F0020313701032137843F002031370224C237843F040032370A2F58632513A137843F041
:400940001003137008221D491D48FFF7ABFF0A221C491D48FFF7A6FF0A221C491C48FFF7A1FF08221B491C48FFF79CFF08221B491B48FFF797FF08221A491B48FFF792FFB9
:400980001A4A137843F008031370FFF74DFF0E2221461748FFF786FF38BD00BF00480040A4230000B000004800760040AC0D00480876004003500140A0430040740D0048E4
:4009C000025100407C0D0048C0510040880D0048F0510040940D0048125100409C0D004822510040A40D00483251004022430040B043004008B501F057FB03680C2B00D1AD
:400A0000FEE7FEE708B5104E104D16E029686B68AC68002204E051F8040B43F8040B0432A242F8D1E868002203E0002143F8041B04328242F9D11035013E002EE6D101F08D
:400A400039FBFFF771FBFEE7010000002C26000008B5114A114B1A60114A136843F40073136000230AE0032B03D80E4A52F8231000E00D490D4A42F8231001332F2BF2D989
:400A80000B4B1A780B4B1A70084A0B4B1A60FFF70DFF01F06BF808BD0004FA050CED00E014ED00E000000000F50900000080FF1FBC760040C080FF1F08ED00E0044A13785A
:400AC00003F0BF03800100F0400018431070704700510040044A137803F0FE0300F0010018431070704700BF20510040044A137803F07F03C001C0B218431070704700BFDB
:400B0000005100407222084B1A702022A3F582731A700622A0331A70472210331A70002251331A70704700BF8865004010B501F0D7F904460B4A137843F020031370A2F5AC
:400B40008272137843F01003137002F20112137843F01003137000F0FFFE204601F0C4F910BD00BF9865004008B5054B1B7823B9FFF7C8FF0122024B1A70FFF7D7FF08BD44
:400B8000AB82FF1F034B1B7813F0040FFAD1024B187070476565004045650040024A137843F080031370704776640040014B1880704700BF02680040014B1880704700BF69
:400BC00082680040014B1880704700BF4268004008B50E4A137803F0C00343F0090313701B32137843F0010313700132137843F0010313704FF6FF70FFF7D8FF4FF6FF7030
:400C0000FFF7DAFF0020FFF7DDFF08BD7664004008B5054B1B7823B9FFF7DAFF0122024B1A70FFF7BBFF08BDAD82FF1F024A137843F08003137070477D640040014B188041
:400C4000704700BF18680040014B1880704700BF98680040014B1880704700BF5868004008B50E4A137803F0C00343F0090313701F32137843F0010313700132137843F0AB
:400C8000010313704FF6FF70FFF7D8FF4FF6FF70FFF7DAFF0020FFF7DDFF08BD7D64004008B5054B1B7823B9FFF7DAFF0122024B1A70FFF7BBFF08BDAE82FF1F024A1378F2
:400CC00043F08003137070477A650040014B1880704700BF146A0040014B1880704700BF946A0040014B1880704700BF546A004008B50E4A137803F0C00343F009031370C5
:400D00002032137843F0010313700132137843F0010313704FF6FF70FFF7D8FF4FF6FF70FFF7DAFF0020FFF7DDFF08BD7A65004008B5054B1B7823B9FFF7DAFF0122024B0F
:400D40001A70FFF7BBFF08BDAF82FF1F10B541F6FF734FF480420121022000F0BDFE084C207041F6FF731A460121042000F0D2FE6070044800F0ECFE002000F0EFFE10BD10
:400D8000B082FF1FB90E000070B52C4C207800F023FF607800F020FF294B1B78FF2B03D100F088FF264B1870254D287806230246042100F099FF214E341DA4B2224645F690
:400DC000A031287800F0A4FF2978307800F044FF6B78FF2B02D100F06DFF6870184D687807230246042100F07FFF164A92B22146687800F08DFF114C6978607800F02CFF7D
:400E00000121207800F0CCFE0121607800F0C8FE01F066F80C4A137843F02003137001F063F80A4B1A7842F001021A701A7842F002021A700122064B1A6070BDB082FF1FD6
:400E4000E880FF1F0083FF1F9C6400407B64004080E200E008B5074B9B6823B9FFF776FF0122044B9A6000F021FEFFF78DFF024B1B7808BDB082FF1F6264004008B500F0AC
:400E800023FE08BD044B1B7803F0FF020BB90028F8D01046704700BF62640040C0F10100034B33F91030034A1088181A00B270470083FF1F208DFF1F704700BF38B5EFF353
:400EC000108572B603284ED82D4B53F82030002B4BD02B4A013B42F820302A4B53F82030032B07D10222274B43F820200022264B43F8202000F03EFC244B1B68002B36D1CD
:400F0000234B1C6800F014FCB0F1FF3F31D0214B53F82020204B1B689A422CD9B4F1FF3F03D00221174A42F824101C4A52F820201343194A13600022124B43F8202000F06B
:400F4000B3FB174B53F820304BB10024144B43F8204040F0004000F045FF20460CE000F041FF002008E0032006E0042004E0002002E0002000E0002085F3108838BD00BF87
:400F80002881FF1FCC81FF1FDC82FF1F1083FF1FB881FF1F54250000F482FF1F3C250000BC82FF1FF8B5EFF3108472B628BB00EB4005AB00184DEB5803EB4306B500174EAF
:400FC00075598D421BD34AB103EB43039E00134B1E44B3689A4214D3954214D3A9B103010F4DEB589BB90301EE180127EF507260013900F087F800200AE0032008E00820C3
:4010000006E0082004E0082002E0082000E0072084F31088F8BD00BFFC240000102500002087FF1F18B108B5C368984708BD704708B508B1406800E00020032816D80C4B4E
:4010400053F8203093B10A4A013B42F82030094B53F82030032B07D10222064B43F820200022054B43F8202000F084FB08BD00BF2881FF1FCC81FF1FDC82FF1F18B10346F2
:4010800040689B6801E00023184603281DD80F4A52F82020CAB10E4A52F82010032914D010B50C4C54F820201A4344F820200A4A52F82020134207D0012905D10222044BC4
:4010C00043F8202000F056FB10BD70471C250000CC81FF1FDC82FF1FCC82FF1F80B108B50378012B06D013B1032B06D008BDFFF79FFF08BDFFF7C2FF08BDFFF793FF08BD02
:40110000704700BF30B400EB40029300214AD258214B03EBC2035C68B4F1FF3F04D11E4B03EBC20250602DE01C4B03EB04139B6899420AD2184D05EBC2025060174A02EB50
:4011400004125B1A93601DE01C46144B03EB04139A68891ADB68B3F1FF3F05D00F4A02EB031292689142EFD2B3F1FF3F05D00B4A02EB031295686D1A9560084A02EB0414C8
:40118000E0601C46054B03EB00108160C46030BC704700BFFC240000F080FF1F2087FF1F38B5394A02EBC0035C6852F83030013342F8303000EB40018A0034498A5893421F
:4011C00003D90022304B43F83020B4F1FF3F59D02F4B03EB04139B68002B4ED1214600E019462B4B03EB0113DB68B3F1FF3F05D0274A02EB03129268002AF1D0244A02EB48
:4012000001114FF0FF32CA601F4A02EBC0004360B3F1FF3F07D01E4A02EB03139A68013A9A6000E02C4604EB44029300194A13441B7A7BB904EB44029300164A13445A6810
:40124000154B53F8223003EB83039A0013481044FFF744FF0E4B03EB0413DD68596821B101392046FFF74EFF03E024010022084B1A51B5F1FF3FD5D138BD054A02EB0414A7
:40128000013BA36038BD00BFF080FF1F102500002087FF1FFC2400000C250000E824000038B5EFF3108572B6002838D1FFF778FF204B1B68002B34D11F4B1C6800F038FAFE
:4012C000B0F1FF3F2FD01D4B53F820201C4B1B689A422AD9B4F1FF3F03D00221194A42F82410194A52F820201343154A13600022144B43F8202000F0D7F9144B53F82030DF
:401300004BB10024114B43F8204040F0004000F069FD20460AE000F065FD002006E0032004E0002002E0002000E0002085F3108838BD00BF1083FF1FB881FF1F54250000BA
:40134000F482FF1FCC81FF1F3C250000BC82FF1FEFF3108372B6114A1168114A126882B9B1F1FF3F0FD00F4A52F821206AB110B40D4C54F8212022EA000044F8210000203F
:4013800007E0022002E0022000E0012083F31088704783F3108810BC704700BFB881FF1F1083FF1F1C250000DC82FF1F03280FD80B4B53F820306BB10A4B53F82030032B08
:4013C0000AD059B1084B53F820300B60002070470320704701207047072070470E2070471C250000CC81FF1FDC82FF1F38B5EFF3108472B6032853D8324B53F82030002B18
:4014000050D0314B53F82030032B4DD02F4D55F820200A4345F820202D4A52F82020114244D0012B44D10222274B43F8202000F0A1F9284B1B68002B3CD1274B1D6800F0FE
:4014400077F9B0F1FF3F37D0244B53F82020244B1B689A4232D9B5F1FF3F03D002211A4A42F825101F4A52F8202013431C4A13600022154B43F8202000F016F91A4B53F8C8
:4014800020304BB10025184B43F8205040F0004000F0A8FC284612E000F0A4FC00200EE003200CE001200AE0072008E0002006E0002004E0002002E0002000E0002084F3DF
:4014C000108838BD1C250000CC81FF1FDC82FF1FCC82FF1F1083FF1FB881FF1F54250000F482FF1F3C250000BC82FF1F38B5EFF3108472B6364B1D68364B1B68002B5DD10B
:40150000B5F1FF3F5CD0344B53F82530002B59D0324B53F82530034256D1314B43F825000122304B43F825202F4B53F825002F490B6823EA00030B602D4B43F825202D4BE5
:4015400053F82520224B1A6000F0F2F8B0F1FF3F06D0294B53F82020244B1B689A420DD81B4B1868B0F1FF3F03D000221D4B43F8202040F0004000F035FC1AE00021194A07
:4015800042F82010184A52F820201343174A136000F08AF8164B53F8203043B10022144B43F8202040F0004000F01CFC01E000F019FC00200A4B43F8250006E0022004E02E
:4015C000022002E0012000E0002084F3108838BDB881FF1F1083FF1F1C250000DC82FF1FCC82FF1FCC81FF1F3C250000F482FF1FBC82FF1FBC81FF1F5425000008B500F054
:4016000053F8084B53F8203043B10022054B43F8202040F00040044B186008BD024B186008BD00BFBC82FF1F1483FF1F10B500F07FF8124B1B68B0F1FF3F1AD0104A52F8C1
:401640002010104A1268914213D9B3F1FF3F03D002240D4941F8234000210B4B43F820100A4B53F820301A43064B1A60FFF7C6FF10BD43F00043064A136010BDB881FF1FFB
:4016800054250000F482FF1FCC81FF1F3C2500001483FF1F034B1B6813B10022014B1A60704700BF0483FF1FF0B4184B19880B0A174AD356B3F1FF3F01D1535601E0083344
:4016C0005BB2144D55F82320134850F82200134E56F8224045F82340114D2F6846F822702A60B4F1FF3F09D10E4A42F82340012202FA03F321EA0301044B19800A4B196893
:401700000A4A42F820101860F0BC7047F082FF1FDC2300007881FF1F0087FF1F0881FF1FEC82FF1F3881FF1FB881FF1FBC81FF1F0C4B1A88130A0C49CB56B3F1FF3F01D1C9
:401740008B5601E008335BB2B3F1FF3F06D0074A52F82320064B53F8220070474FF0FF30704700BFF082FF1FDC2300007881FF1F0087FF1F30B4144B53F82020134C23686D
:40178000134951F823502560124C44F823004FF0FF3441F82340104951F82210A1420AD10E4951F820400E480188214301800D4941F8223002E0064840F82130064941F849
:4017C000223030BC704700BF1881FF1FEC82FF1F0881FF1F0087FF1F3881FF1F54250000F082FF1F7881FF1F10B150F8210070474FF0FF30704700BF0122014B1A60FEE71C
:401800000C83FF1F70B50546124B53F8306000241CE0104B03EBC50321465868FFF7E4FF0D4A52F82030013B42F820300B4B53F82030032B07D10222084B43F82020002260
:40184000074B43F82020FFF795FF0134B442E0D370BD00BFDC2400002881FF1FCC81FF1FDC82FF1F18B908B5FFF7CCFF08BD7047194B1A4ADA621A4A9A631A4ADA63EFF3E6
:40188000108272B6184B1B6813BB10B5044600F053F8164B1C600122134B1A602046FFF7E1FFFFF745FFB0F1FF3F0ED0104B53F82030104A11680B43136000220E4B43F825
:4018C0002020FFF7F1FE00F08DFA62B6FFF794FF82F31088072070470080FF1FA51D0000691D0000910000000C83FF1F3087FF1F3C250000F482FF1FCC81FF1F08B5EFF3C8
:40190000108272B6094B1968094B1B6833B94FF0FF30084B43F82100002000E0022010B9084600F0B8FA82F3108808BDB881FF1F1083FF1FF880FF1F10B5EFF3108472B68A
:4019400000F000FA034A136843F07F43136084F3108810BD20ED00E0054A137843F0080313701032137843F008031370704700BFA243004008B50A280FD00C2802D00828BC
:4019800006D102E04FF4805209E04FF4807206E0002000F0CBF9002201E04FF480620021094B198042F2107303FB02F303F6C413064A82FB0302DB17C3EBE223044A136099
:4019C000044B198008BD00BF1E8DFF1FAD8BDB68248DFF1F208DFF1F10B500F081FA0446184A137843F0010313701032137843F00103137002F5AA520832137843F0030304
:401A000013701822104B1A70013B1A7842F040021A701A7802F0FC021A70C822053B1A700222A3F597530C3B1A70084A137843F0080313700A2000F07BF9204600F054FA31
:401A400010BD00BFAB43004006590040275B004010B504460A280DD00C2802D0082804D101E0C22207E0422205E0002000F05EF9C22200E08222034B1A702046FFF77AFFB1
:401A800010BD00BF0259004008B5064A137843F0060313700C20FFF7DBFF0022024B1A8008BD00BF015900401C8DFF1F08B5054B1B7823B9FFF7E8FF0122024B1A70FFF775
:401AC0008BFF08BDFC82FF1F024A137843F001031370704700590040F0B583B016461F460B4C012525700023019300932B460A460146284600F0BCF83A463146207800F08C
:401B000091F80221207800F07BF8207803B0F0BD0482FF1FF0B583B016461F460B4D00242C700194009423460A460146204600F09FF83A463146287800F074F802212878E5
:401B400000F05EF8287803B0F0BD00BF0582FF1F014B1B681864704708ED00E04001C0B2014B1870704700BF00E400E00B4A7F2313708021517007E0DA0002F1804202F5DA
:401B8000F042013BDBB21370002BF5D1DB0003F1804303F5F04300221A7070470882FF1F172815D831B103010A495A5C42F020025A5405E0030107495A5C02F0DF025A5461
:401BC0000001044A835C43F00103835400207047012070471070004017280CD80001074BC1180A7942F004020A71C25C42F00102C254002070470120704700BF107000401E
:401C000017280BD80001064A835C03F0F103490001F00E011943815400207047012070471070004041F6FF73994201D14FF4005141F6FF739A4201D14FF40052172808D88D
:401C4000C00000F1804000F5EC408180C280002070470120704700BF172805D8034B03EB0010417200207047012070471070004017281BD810B4C00000F1804404F5EC4403
:401C8000D201D2B201F07F01114321709DF804201201D2B203F00F03134363709DF8083003F00F03A3700020E07001E00120704710BC704710B500F013F90A4B5B78182B3C
:401CC0000BD9084A1478013B5370E30003F1804303F5F0431B78137000E0FF2400F004F9204610BD0882FF1F10F0800F0CD111F4704F0BD1C00000F1804000F5F04001805A
:401D00008270C37000207047012070470120704710F0800F08D1C00000F1804000F5F0408180C280002070470120704701BE704708B5034B1B7A00FB03F000F0C9F808BD8D
:401D40001082FF1F18484FF47F0102680A43026016486FF07F4102680A400260704714484FF080510160704772B611484FF000610160FFF75BFC0F48006800F0D5F858B155
:401D80000C4800684FF080730B4A0C490FB40FB46FF00600004700BF6FF0060062B6004762B600DF08B0704720ED00E01CED00E004ED00E01483FF1FE51D0000A11D000054
:401DC000EFF30880054908600548006880F3088870470248006880F3088870472082FF1FF481FF1F411C8900154A11440968154A136899421AD0F0B444464D4656465F46E9
:401E0000F0B400B5104C9B002344EFF308851D60116089002144096881F3088802BC8E46F0BCA046A946B246BB46F0BC002806DB00B500F06DF802BC8E46FFF7D3BF70478F
:401E400084250000F882FF1FF881FF1FF0B444464D4656465F46F0B400B5EFF3038308B48000174901440968164A0244EFF30883136088471448804704BC4FF080700243C9
:401E800082F3038801BC8646F0BCA046A946B246BB46F0BC704780000A4901440A6882F3088804BC4FF08070024382F3038808BC9E46F0BCA046A946B246BB46F0BC704774
:401EC000642500001087FF1FF11E0000000000000230800803D000BF01380046FCD17047EFF3108072B6704780F31088704700BF08B572B6014B1868FFF7CDFFB881FF1FAA
:401F000008B5024B1868FFF7A1FF08BDB881FF1F08B562B6FFF7F4FF72B600F041F8014B186808BD1483FF1F00280BDA20F000400130054B53F82000044B1B68181A18BFEC
:401F4000012070470120704784250000F882FF1F054B53F82020054B53F820309A4201D101207047002070472881FF1F2C25000008B5FFF799FB084B53F8203043B10022EA
:401F8000054B43F8202040F00040044B186008BD024B186008BD00BFBC82FF1F1483FF1F38B5364B1C680022354B1A60354A52F82430013342F82430334B53F82450204670
:401FC000FFF7C6FF012801D0A54204D103222F4B43F8242003E002222C4B43F824202C4B53F824102B4A136823EA010313602A4B53F82440214B1C60B5F1FF3F0FD0234BAE
:4020000053F82530032B07D10222204B43F825200022224B43F825202846FFF7ABFBFFF787FBB0F1FF3F0BD1B4F1FF3F03D00022164B43F8242044F00044194B1C6038BD9A
:40204000184B53F82020134B1B689A4208D800220E4B43F8242044F00044114B1C6038BD00210A4A42F82010094A52F820201343084A1360FFF77CFF38BD00BFB881FF1F43
:402080000483FF1F2881FF1FF880FF1FCC81FF1F3C250000F482FF1FBC81FF1FDC82FF1F1483FF1F54250000014B1868704700BF8482FF1F0E4B70B51E460E4C0025E41AF4
:4020C000A410A54204D056F8253098470135F8E700F09AFA084B094C1E46E41AA4100025A54204D056F8253098470135F8E770BD1426000014260000142600001C26000004
:4021000010B5431E0A44914204D011F8014B03F8014FF8E710BD03460244934202D003F8011BFAE77047000000000000910100000100000001000000690400000A00000048
:4021400019030000640000000200000000000100010001000100010001000100010002000200020002000200020002000200020002000200020003000300030003000300AE
:4021800003000300040004000400040004000400050005000500050005000600060006000600070007000700080008000800090009000A000A000A000B000B000C000C0045
:4021C0000D000D000E000F000F00100011001100120013001400150016001700180019001A001B001C001D001F0020002100230024002600280029002B002D002F00310077
:402200003400360038003B003D0040004300460049004C004F00530057005B005F00630067006C00700075007B00800086008C00920098009F00A600AD00B500BD00C500F8
:40224000CE00D700E100EB00F50000010B011701240130013E014C015B016A017A018B019C01AF01C201D601EA01000217022E02470261027C029802B502D402F4021603A6
:4022800039035D038303AB03D50300042D045D048E04C204F80430056B05A805E8052B067106BA0606075607A90700085B08B9081C098309EF09600AD50A500BD10B560C14
:4022C000E20C740D0D0EAC0E520F0010B510731138120713DF13C014AB15A116A117AD18C419E91A1A1C581DA51E00206B21E52271240E26BD278029562B412D422F5A3180
:402300008933D1353338B03A493D0040D542CB45E2481C4C7A4FFF52AC56825A845EB3621267A26B66706075927A0080AA85958BC3913798F59EFEA558AD04B508BD66C505
:4023400024CE44D7CCE0C0EA25F5FFFF0000000000000000020000000000000001000000742300000000000000000000000000000000000002000000000000000000000046
:40238000010000000000000001000000A02300000000000000000000000000000000000003000000004F00400C00405100403000000001400010001401400008004001408A
:4023C000000A004C01400002105001401000000000500140640D004810000000FF0001010202020203030303030303030404040404040404040404040404040405050505C4
:402400000505050505050505050505050505050505050505050505050505050506060606060606060606060606060606060606060606060606060606060606060606060638
:4024400006060606060606060606060606060606060606060606060606060606070707070707070707070707070707070707070707070707070707070707070707070707B8
:40248000070707070707070707070707070707070707070707070707070707070707070707070707070707070707070707070707070707070707070707070707070707075C
:4024C0000707070707070707070707070707070707070707070707070707070701000000E42400000000000000000000020000000000000000000000FFFFFFFF0000000011
:4025000000000000000000000000000000000000A08601000100000000000000000000000000000001000000010000000100000001000000010000000100000080000000ED
:40254000010000001000000004000000010000000200000001000000010000001000000004000000510100008D0100007105000045050000011F0000011F0000011F00002D
:40258000011F00000000000000000000000000000100000002000000616C61726D5F696F5F316D730000000065765F6A6F79737469636B5F6F6E44617461000065765F7436
:4025C000617267657473706565645F6F6E4461746100000074736B5F696E69740000000074736B5F6261636B67726F756E64000074736B5F696F000074736B5F636F6E74DD
:40260000726F6C0043000000F8B500BFF8BC08BC9E4670474D000000510A0000F8B500BFF8BC08BC9E4670472900000040260000C880FF1FC0010000A00A00000000000004
:40264000000000000000000000000000782300000000000000000000000000004C230000FFFF00009825000000000000FFFFFFFFFFFFFFFFFFFFFFFFFFFFFFFFFFFFFFFFA9
:40268000010000000200000003000000FFFFFFFF0000000000000000040000000200000001000000010000000100000001000000FFFFFFFFFFFFFFFFFFFFFFFFFFFFFFFF1E
:4026C000FFFFFFFFFFFFFFFFFFFFFFFFFFFFFFFFFFFFFFFFFFFFFFFFFFFFFFFFFFFFFFFFFFFFFFFFFFFFFFFFFFFFFFFFFFFFFFFFFFFFFFFFFFFFFFFFFFFFFFFFFFFFFFFF1A
:40270000FFFFFFFFFFFFFFFFFFFFFFFFFFFFFFFFFFFFFFFFFFFFFFFFFFFFFFFFFFFFFFFFFFFFFFFFFFFFFFFFFFFFFFFFFFFFFFFFFFFFFFFFFFFFFFFFFFFFFFFFFFFFFFFFD9
:40274000FFFFFFFF03000000030000000300000003000000A8250000BC250000D4250000E0250000F0250000F82500001C8DFF1F00000000D886FF1FF48AFF1FFFFF000096
:402780007F800000030000000000A08C401901004800000000A24A04000000000000000000000000000000000000000000000000000000000000000000000000042600002F
:4027C0000000000000000000000000000000000000000000000000000000000000000000000000000000000000000000000000000000000000000000000000002482FF1F15
:402800000000000000000000000000000000000000000000000000000000000000000000000000000000000000000000000000000000000000000000000000000000000098
:402840000000000000000000000000000000000000000000000000000000000000000000000000000000000000000000000000000000000000000000000000000000000058
:402880000000000000000000000000000000000000000000000000000000000000000000000000000000000000000000000000000000000000000000000000000000000018
:4028C00000000000000000000000000000000000000000000000000000000000000000000000000000000000000000000000000000000000000000000000000000000000D8
:020000040003F7
:0200000480007A
:4000000001450040024F004009520040015B004003640040026500401F0001402F01014040020140470301401D0401403A05014038060140410701403D0801404609014045
:40004000260A01403D0B01404C0C0140560D0140280E01402E0F01405C14014052150140471601404117014026180140451901404A1A01404B1B01400F4001401641014032
:40008000084201400643014003440140094501400C4601400B47014006480140084901400F4C0140154D014004500140035101407E0201400A360001010308690933103071
:4000C0001118608061947C4027848438880F8C01850F887216013401580459045C225F01C020C104C9FFCAFFCBFFCDA0CF04D018D608D804D904DA04DB04DC22DD91DF0182
:40010000E040E2C0E440E540E6C0E8C0EAC0ECC0EEC00108030405080704081009440C120F20100211141510161018041B1028102A102C102E102F803002310833803502CF
:40014000380439143C043D803E20452046405F8067018380855286908B40C066C277C467CAE6CC8BCE76D0A0D610D810E206E6880302040408040C04140418011F012101A9
:400180002E03310332043402360138083E044020410446024710482449FF4AFF4BFF4DAF4E0F4F0450185401580C59045A045B0C5C925D215F01604062C06440654066C03E
:4001C00068C06AC06CC06EC080018501860189018A01970198019C019D01A001A101A501A901AC01B301B401D804D904DC22DF010004038406080712081009400E040F20B0
:40020000100211021280178019101E041F482108278028102A202B802F4032803304378038243A103F01452046404BC056415F407F01800282208D108F1090049301978081
:400240009A109B049C109E60A140A280A380A402A520A708A90CAB80B308B404B508B610B704C0EEC263C489CA87CC1ACE86D0A0D610DE10E244E440E602EA24EE04060192
:400280000D0116011D0129012D01330136013E403F045418580459045B045C225D305F0182019A02AE02B401B602D608D804D904DB04DC21DD90DF0102140384074009029D
:4002C0000B140D2010101182160119401D201E0223202A062B0A2C102D20300231123284370438643B043C043D823E225A025C8061406220664067018201830190249702A4
:400300009A219B049C109F02A002A141A380A520A908B208B710C01EC24EC48DCA6FCC4FCEFED611D81CE401E604E8305280580459045B045C225D105F01815083248528FD
:4003400087448B188D189118970199609F18A118A302A701A960AF18B118B360B501B706BF50C042C105C206C401C6C0C70EC818C9FFCAFFCBFFCC62CDA0CEF0CF41D00C15
:40038000D804D904DA04DC32DD03DF01E640E702E910EA30EB10ED10EE10EF12000401200404053006020780081009020A080D0211021388141016042001210422212808E5
:4003C00029012B122D202E023002328833103410378C384039283B013C043E2040414110432048024A014B10521877408520900493019440960A97109A669B249C909D304A
:400400009E109F42A103A6A0A70AC0F6C21AC46DCAAFCC7FCE6FD00DD20CE602EE040160050A071009040D070F38115613091580170419011D84218425842D042F803108F5
:400440003302357F378039203F4540624101424045CE46D047BF483B49FF4AFF4BFF4C224EF04F08500456025728580459045A045B045C025F0162C0644065016610671190
:4004800068C069016B116C406D016E406F01D409D804DB04DC02DF010008012402100520061008990A0A0C110D0813201488262827422E042F823540362137043C143D80C2
:4004C0003F02456047024C444D0A5620570559185B42624067106C086E056F87754076028504864891189208931094859605972098899B209D209E229F01A004A128A20132
:40050000A320A408A540A620A704B020B144C066C27FC452CAD0CCF0CEF0D0B0D220D60FD848EE045440580459045B045C225F01801182228462861488428A088C408F0140
:400540009002920D948D988D9C8DA00DA280A680AC8DB00FB280B301B470B670BAA2BE04D203D302D804D904DB04DC20DD20DF0100080120038004850510080809110A08FF
:400580000C080E4513201420162217011C101D301E421F2024202508272028892BC92F883101320435013720382039043C8A3D263F026010614063086D5081408E209310B2
:4005C00094049550972099019C089F20A045A110A348A540A720AB04C0FEC2FEC4B2CAADCCA3CEF6D80EE401EC040505070A0A020D030F0C15021601170D250927062E0464
:4006000030043201330F34023B084060410249FF4AFF4BFF4DA04F04501856025739580459045A045B0C5C025D215F01604062C06440654066C068C06AC06CC06EC0920120
:400640009A02A202B202B401C060C102C510C620C80AC9FFCAFFCBFFCDAFCE0FCF04D018D280D804D904DA04DB04DC21DD11DF01E040E2C0E440E540E6C0E8C0EAC0ECC0B0
:40068000EEC0048005010601072809020A040C080D400E080F801080120813101408174019101A041B141C081D011E281F08260828102B402F2031013308341036083720E2
:4006C00039803A013B043C043D8041204520488049104F2051205D1067206C1C6D046E406F407102744077097D4081019080918093049428950496409C109D019F69A001FD
:40070000A110A340A614A708AA44B440B510B601B740C0F0C2FAC4C8CA43CC43CE5BD024D224D620D840DE10E602EC40EE102B013701580459045C225F0181088204842084
:400740008501861088088C408E809080910492409410950296209A019B019E089F04A002A310A401A708AA02AC04AF02B51FB6FFB920BE40BF10D804D904DC20DF0100028F
:400780000201042805110601080809100C040D400E680F04100613041428168017691F40200221402530281029102B402D042E802F48300231213308342835013740398075
:4007C0003B043C023D203F8486108720C0F9C2F6C4F7CAF7CCF7CEFAE2040203041006AC0B130C0C0E710F0C1009112C12D0130319311B061CDC1E221F082010213122402A
:40080000230E2620281430E0310F3330361F39083A023B023F044003460449FF4A074BFF4C404D204EF04F055008580459045A045C335D035F01604061A8624063208033C6
:40084000820488338A0C8D01900A923498039A149E08A440A615B010B40FB501B660B880BA20BE01BF10C023C101C50CC6BEC80DC9FFCAFFCBFFCEF0CF44D00CD401D804AE
:40088000D904DA04DB04DC23DD33DF01E6C0EA40EB0200010201031005110A020B800D020E020F041080112012101610180119011D101E421F4021062201270829012A0106
:4008C0002D042E203080311233103410350837A638203B803D023E804104461147104F0450905210551056805C025D205E405F08640265206680670481018220850887229C
:4009000089048B808C019A209B049C109F80A101AB42AC80B321B510B701C05DC2D9C42ECA61CCFDCE9CD072D6F0E004E202E409E602EC20EE020004010403200402080679
:400940000B040C060D1C0E010F01100611101201140715081D1C1E011F0220012107220623182703291F2D1830073520371F3A0A3B80580459045C335F018119820883067A
:400980008407850888078D108E089001911892069408951F9B199D079F18A004A104A201A502A802A906AA01AC08AD1EAF01B007B11EB307B408B8A0BB02BE40D804D9049E
:4009C000DC33DF01011002800312051607010A900E500F0212061301150219011A801B501E501F0A204021012202231025102680270129162B022E122F2131013280332824
:400A000035063680390A3A463D203E403F01810683108408851091089301944097109A609B049C989D019F92A101A680A73AAA01AB08B320C0FFC2BCC41BCAFFCCDFCEBB75
:400A4000E204E60DEE0205980702080109380BC00D130F64110214011502179819211BD81D9A219A25FC27032C012D982F02320133E0350F37133B285602571258045904B3
:400A80005B045C035D305F01D804D904DB04DC22DF01012002080340042008010A020E20104011041204132015401F04241D25402620284129202A042FA232013340354260
:400AC0003620370439043C103D803E045F0468906A806B086C106D406E20711872817508760A8010820A841086108880911C92069304941D9720980199429B249D20A120B2
:400B0000A3A2A540B304B512C04AC229C48ECADFCCF9CE72D640E008EC20EE0207020B02130118013102350136013E404020410449FF4AFF4BFF4DA04F0450185280580467
:400B400059045A045B045C125D115F01604062C06440654066C068C06AC06CC06EC0800D82108414862B960298109A279C38A440A840B203B440B63CB8A0BE10C030C105C2
:400B8000C612C80CC9FFCAFFCBFFCDAFCE0FCF04D018D804D904DA04DC20DD01DF01E040E2C0E440E540E6C0E8C0EAC0ECC0EEC002280409088109100A020D200E221048D2
:400BC0001104132015181A011E221F102004210123082C49300234803504371038043A103D044004428047084F805690574070028104822883508441850488808A118B2032
:400C00008D109009911C92029502972098019B209C409F40A120A608A910AD08B101B201B304B508B6C0B708C036C2EBC46ECAB0CC71CE46D045D210E220E410E620E80278
:400C4000EAC0EC24EE02130116803082340236403B223E80800283018880C430CCF0CE70E080E220011004100B400F80332050015F208402851087208C018F4097029C02D2
:400C8000A640B310C0C0C230CC10D480D620E64053089702A640AB20B340B410D420EA801B08A640A708AB01C610EE2070048240DC0158105E026408848094089640D40139
:400CC000D601D8011B04260882018C04940896409C90A601A808C608C801E00808800B400E40440196409C90AB04B208C20ED004EE0125026501AE40C880D880EE400308B8
:400D0000A708A901AB08B102C040EA20EC80512056205A405B045C106208668285208A209C11AF40D407D607D803E401130278407F0288408B029F02AA02AE80AF02B011ED
:400D4000B208B410B640B704C408DC01DE04E001E401E80CEC0F100F12141A0C1C0F00AB010F100A0F0114000000000006010E01050007003CC0C00000030300800040BC15
:400D8000BC00B400000000004000000000000000C000000000FFFF00FF0000000039390038000000043838000800000000010000000000000000000000000000000000009F
:400DC00000000000000000000000000000000000000000000000000000000000000000000000000000000000000000000000000000000000000000000000000000000000F3
:400E000000000000000000000000000000000000000000000000000000000000000000000000000000000000000000000000000000000000000000000000000000000000B2
:400E40000000000000000000000000000000000000000000000000000000000000000000000000000000000000000000000000000000000000000000000000000000000072
:400E80000000000000000000000000000000000000000000000000000000000000000000000000000000000000000000000000000000000000000000000000000000000032
:0200000490006A
:0400000000004007B5
:0200000490105A
:04000000BC90ACAF55
:0200000490303A
:02000000279C3B
:0200000490402A
:4000000000000000000000000000000000000000000000000000000000000000000000000000000000000000000000000000000000000000000000000000000000000000C0
:400040000000000000000000000000000000000000000000000000000000000000000000000000000000000000000000000000000000000000000000000000000000000080
:400080000000000000000000000000000000000000000000000000000000000000000000000000000000000000000000000000000000000000000000000000000000000040
:4000C0000000000000000000000000000000000000000000000000000000000000000000000000000000000000000000000000000000000000000000000000000000000000
:0200000490501A
:0C00000000012E16106900012E283805A2
:00000001FF